:080000000C942A000C9400008E
:100008000C9400000C9400000C9400000C94000068
:100018000C9400000C9400000C9400000C94000058
:100028000C9400000C9400000C9400000C94000048
:100038000C9400000C9400000C9400000C94000038
:100048000C9400000C9400000C940000F894EE2727
:10005800ECBBF1E0FBBFEBBFE5BF8DE0A2E0BB2747
:10006800ED938A95E9F780E098E0A0E6ED93019793
:10007800E9F7EFE5EDBFE8E0EEBFC0E6D2E00C94AB
:100088008B00E0E0E5BBE2BB08951A931A2FF9DF75
:1000980053D029F4AA9A939A909AAB9A17C0E33549
:1000A800A0E0FA0721F4AD9A939A909A0EC0E4352D
:1000B800A0E0FA0719F4929A939A06C0E234A0E0F5
:1000C800FA0721F4959A909AAB9AA89A1EC01A93A7
:1000D8001A2F32D019F4AA98A99A14C0E335A0E0CF
:1000E800FA0719F4AD98AC9A0DC0E435A0E0FA0708
:1000F80019F49298919A06C0E234A0E0FA0711F434
:100108009598949AA0EDB7E021D019910895EFEF52
:10011800E4BBE1BBA5E516D0A5E5D9DFA3E512D080
:10012800A3E5D5DFA4E50ED0A4E5D1DFA2E40AD08B
:10013800A2E4CDDFEFCFFFCFE12FF0E0E535A0E07F
:10014800FA070895A2DFA8E8B3E100C0109639F0D5
:10015800A89588EB9BE00197F1F71197C9F70895E7
:00000001FF
