:060000000C9447000C9473
:1000060000000C9400000C9400000C9400000C946A
:1000160000000C9400000C9400000C9400000C945A
:1000260000000C9400000C9400000C9400000C944A
:1000360000000C9400000C9400000C9400000C943A
:1000460000000C9400000C9400000C940000550075
:100056005300540042000200600254000200620293
:1000660054000200640256000200660256000200B6
:100076006802580002006A02580002006C025A0028
:1000860002006E025A000000F894EE27ECBBF1E085
:10009600FBBFEBBFE5BF8DE0A2E0BB27ED938A95E2
:1000A600E9F780E098E0A0E6ED930197E9F7ECE543
:1000B600F0E085919591009761F0A591B591059035
:1000C6001590BF01F00105900D920197E1F7FB0134
:1000D600F0CFEFE5EDBFE8E0EEBFC0E6D2E00C946E
:1000E600D000E0E0E5BBE2BB08951A930A938D01C8
:1000F600F8DFD801AC91A53529F4AA9AAB9A909A63
:10010600939A1AC0D801AC91A33529F4AD9AA89A4E
:10011600909A939A11C0D801AC91A43529F4929A79
:10012600A89AAB9A939A08C0D801AC91A23421F44C
:10013600959AA89AAB9A909A2DC01A930A938D0114
:10014600AC91A53539F4AA98A99AA8ECB0E046D0A6
:10015600A99820C0D801AC91A33539F4AD98AC9AD2
:10016600A8ECB0E03BD0AC9815C0D801AC91A43552
:1001760039F49298919AA8ECB0E030D091980AC0E0
:10018600D801AC91A23431F49598949AA8ECB0E0D9
:1001960025D09498099119910895EFEFE4BBE1BB3E
:1001A600A0E6B2E017D0A2E6B2E0C7DFA4E6B2E06E
:1001B60011D0A6E6B2E0C1DFA8E6B2E00BD0AAE60F
:1001C600B2E0BBDFACE6B2E005D0AEE6B2E0B5DF4A
:1001D600E7CFFFCF8ADFA0E9B1E000C0109639F083
:1001E600A89588EB9BE00197F1F71197C9F7089559
:00000001FF
