:0A00000031C0FECFFDCFFCCFFBCFD7
:10000A00FACFF9CFF8CFF7CFF6CFF5CFF4CFF3CFBA
:10001A00F2CFF1CFF0CFEFCFEECFEDCFECCFEBCFEA
:10002A0055005300540042000200E0002A0002007A
:10003A00E2002A000200E4002C000200E6002C0084
:10004A000200E8002E000200EA002E000200EC0086
:10005A0030000200EE0030000000F894EE27ECBBFE
:10006A00F1E0FBBFEBBFE5BF8DE0A2E0BB27ED935C
:10007A008A95E9F780E092E0A0E6ED930197E9F727
:10008A00E2E3F0E085919591009761F0A591B59131
:10009A0005901590BF01F00105900D920197E1F7C7
:1000AA00FB01F0CFEFE5EDBFE2E0EEBFC0EED0E03E
:1000BA004BC0E0E0E5BBE2BB08956DD08D01F9DFEE
:1000CA0060D0A53529F4AA9AAB9A909A939A17C048
:1000DA0058D0A33529F4AD9AA89A909A939A0FC04A
:1000EA0050D0A43529F4929AA89AAB9A939A07C049
:1000FA0048D0A23421F4959AA89AAB9A909A21C032
:10010A004AD08D013ED0A53529F4AA98A99A3CD0A7
:10011A00A99817C036D0A33529F4AD98AC9A34D033
:10012A00AC980FC02ED0A43529F49298919A2CD06D
:10013A00919807C026D0A23421F49598949A24D095
:10014A009498099119910895EFEFE4BBE1BBA0EEF1
:10015A00B0E01DD0A2EEB0E0D3DFA4EEB0E017D03D
:10016A00A6EEB0E0CDDFA8EEB0E011D0AAEEB0E086
:10017A00C7DFACEEB0E00BD0AEEEB0E0C1DFE7CF48
:10018A00FFCFD801AC910895A8ECB0E007C095DF85
:10019A00A0E9B1E003C01A930A930895109639F0C2
:1001AA00A89588EB9BE00197F1F71197C9F7089595
:00000001FF
